:100000000C94FB050C9442060C9442060C94AE2C06
:100010000C9442060C9442060C9442060C94420640
:100020000C9442060C9442060C94221A0C949117DC
:100030000C94DE2A0C9442060C9442060C94420660
:100040000C9442060C9442060C9442060C94420610
:100050000C9442060C94BE130C9442060C94420677
:100060000C9442060C9442060C9442060C944206F0
:100070000C9442060C9442060C9442060C944206E0
:100080000C9442060C9442060C9442060C944206D0
:100090000C9442060C9442060C9442060C944206C0
:1000A0000C9442060C9442060C9442060001010195
:1000B0000101010101010202020202020202020325
:1000C00003030303030303040404040404040505F5
:1000D00005050506060606060707070707080808B8
:1000E00008090909090A0A0A0B0B0B0C0C0C0D0D67
:1000F0000D0E0E0E0F0F0F101011111112121313FF
:100100001414151516161717181819191A1A1B1B77
:100110001C1D1D1E1E1F20202122222324242526D3
:1001200026272829292A2B2C2D2D2E2F303132320B
:10013000333435363738393A3B3C3D3E3F40414217
:10014000434445464748494A4C4D4E4F50515354FD
:10015000555658595A5B5D5E5F61626465666869B1
:100160006B6C6D6F7072737577787A7B7D7E808231
:10017000838587888A8C8E8F91939596989A9C9E7A
:10018000A0A2A3A5A7A9ABADAFB1B3B5B7BABCBE8A
:10019000C0C2C4C6C9CBCDCFD1D4D6D8DBDDDFE257
:1001A000E4E7E9EBEEF0F3F5F8FAFDFFFFAA7F557F
:1001B000402223252628292A2C2D2F30323335366C
:1001C000383A3B3D3E4042434547494A4C4E5051E8
:1001D000535557595A5C5E6062646668696B6D6F0F
:1001E00071737577797B7D7F81838587898A8C8E12
:1001F00090929496989A9C9E9FA1A3A5A7A8AAAC1A
:10020000AEAFB1B3B4B6B8B9BBBCBEBFC1C2C3C553
:10021000C6C7C9CACBCCCDCED0D1D2D2D3D4D5D6F5
:10022000D7D7D8D9D9DADADBDBDBDCDCDCDCDCDD28
:10023000DDDDDDDCDCDCDCDCDBDBDBDADAD9D9D80C
:10024000D7D7D6D5D4D3D2D2D1D0CECDCCCBCAC9A4
:10025000C7C6C5C3C2C1BFBEBCBBB9B8B6B4B3B1D3
:10026000AFAEACAAA8A7A5A3A19F9E9C9A9896946E
:1002700092908E8C8A89878583817F7D7B79777543
:1002800073716F6D6B6968666462605E5C5A595722
:10029000555351504E4C4A4947454342403E3D3BE1
:1002A0003A3836353332302F2D2C2A29282625236B
:1002B0002200AF29001E001F002000210022002B79
:1002C0000014001A00080015001700E000040016D2
:1002D00000070009000A00E1001D001B00060019CC
:1002E0000005000000E200E3002C412C002F003547
:1002F00000270026002500240023002D00130012F3
:10030000000C0018001C00340033000F000E000D1C
:10031000000B00E500380037003600100011000027
:1003200000E7002A002942280030000100010001F6
:10033000000100010001003A003B003C003D003E8E
:10034000003F0035001E021F02200221022202018E
:100350000001000100010001000100000001000196
:100360000001000100010001000100010001000185
:1003700000010045004400430042004100400035B8
:100380000227022602250224022302310230022F14
:10039000022E022D020000000001000100010001F8
:1003A0000001000100010001000100010001003511
:1003B000001E001F002000210022003A003B003CEC
:1003C000003D003E003F0040004100420043004429
:1003D00000450000000100010001000100010001D2
:1003E00000010001000100010001000100270026BA
:1003F0000025002400230000004F0052005100504F
:10040000000000310030002F002E002D002E0200D1
:1004100000010001000100010001000000000000D7
:1004200000000000000000000000000000000000CC
:1004300000000000000000000000000000000000BC
:1004400000000000000000000000000000010001AA
:10045000000100010000000000000000000000009A
:10046000000000000000000000000000000000C9C3
:100470005CC75CC55CC25C00000000CA5CC85CC6AE
:100480005CC35C00000000000001000100010001ED
:1004900000000000DA02818FD9F1DB40A4A62EAF64
:1004A00000A0C000A1C800AED580A81FD300408D19
:1004B00014200000047F3F1F643214643214783C1F
:1004C0001E1E140A05202020202020200053435205
:1004D0004C434B200020202020202020004341506E
:1004E0004C434B200020202020202020004E554D42
:1004F0004C434B2000556E646566696E65640A0066
:1005000041646A7573740A0052616973650A004C2C
:100510006F7765720A0044656661756C740A004CF9
:10052000617965723A20004C696C7935384C2072DB
:100530006576312E300A0A00808182838485868721
:1005400088898A8B8C8D8E8F9091929394A0A1A292
:10055000A3A4A5A6A7A8A9AAABACADAEAFB0B1B2F3
:10056000B3B4C0C1C2C3C4C5C6C7C8C9CACBCCCD49
:10057000CECFD0D1D2D3D40000AE05010902A10163
:1005800085020901A10005091901290515002501A8
:1005900095057501810295017503810105010930F9
:1005A00009311581257F9502750881060938158165
:1005B000257F950175088106050C0A3802158125ED
:1005C0007F950175088106C0C005010980A10185DC
:1005D0000319012AB700150126B70095017510818E
:1005E00000C0050C0901A101850419012AA002150A
:1005F0000126A002950175108100C005010906A120
:1006000001050719E029E715002501950875018105
:10061000029501750881010507190029FF150026BB
:10062000FF00950675088100050819012905950543
:1006300075019102950175039101C009023B000209
:100640000100A0FA090400000103010100092111C1
:100650000100012240000705810308000A09040186
:10066000000103000000092111010001228100079F
:1006700005820320000A120110010000000851FC4D
:1006800058000001010203010403300000000E03C2
:100690004C0069006C00790035003800000012033E
:1006A00046005F00590055005500430048004900CE
:1006B0000000040309040000000000003E5B4F5BE3
:1006C0003E003E6B4F6B3E001C3E7C3E1C00183CC7
:1006D0007E3C18001C577D571C001C5E7F5E1C0072
:1006E00000183C180000FFE7C3E7FF0000182418BB
:1006F0000000FFE7DBE7FF0030483A060E0026293E
:1007000079292600407F05050700407F05253F0029
:100710005A3CE73C5A007F3E1C1C0800081C1C3E4B
:100720007F0014227F2214005F5F005F5F000609D4
:100730007F017F00006689956A00606060606000EC
:1007400094A2FFA2940008047E04080010207E20DA
:10075000100008082A1C0800081C2A0808001E109F
:10076000101010000C1E0C1E0C0030383E383000EB
:10077000060E3E0E060000000000000000005F00B4
:100780000000000700070000147F147F1400242AD3
:100790007F2A120023130864620036495620500055
:1007A000000807030000001C224100000041221C39
:1007B00000002A1C7F1C2A0008083E080800008050
:1007C00070300000080808080800000060600000A1
:1007D0002010080402003E5149453E0000427F407F
:1007E00000007249494946002141494D330018141F
:1007F000127F10002745454539003C4A49493100E0
:10080000412111090700364949493600464949291D
:100810001E0000001400000000403400000000082A
:10082000142241001414141414000041221408006E
:100830000201590906003E415D594E007C12111219
:100840007C007F49494936003E41414122007F41B9
:1008500041413E007F49494941007F0909090100A2
:100860003E41415173007F0808087F0000417F41ED
:1008700000002040413F01007F08142241007F40DA
:10088000404040007F021C027F007F0408107F0070
:100890003E4141413E007F09090906003E41512188
:1008A0005E007F09192946002649494932000301A3
:1008B0007F0103003F4040403F001F2040201F00B9
:1008C0003F4038403F006314081463000304780479
:1008D00003006159494D4300007F4141410002043A
:1008E00008102000004141417F0004020102040081
:1008F0004040404040000003070800002054547866
:1009000040007F2844443800384444442800384498
:1009100044287F0038545454180000087E0902000F
:1009200018A4A49C78007F080404780000447D404B
:1009300000002040403D00007F102844000000419E
:100940007F4000007C04780478007C080404780070
:10095000384444443800FC1824241800182424186F
:10096000FC007C0804040800485454542400040487
:100970003F4424003C4040207C001C2040201C00C0
:100980003C4030403C004428102844004C9090905B
:100990007C004464544C44000008364100000000D0
:1009A0007700000000413608000002010204020046
:1009B0003C2623263C00000000000000404040F0A0
:1009C000F8F8FF38FFF8F83FF8F8FF38FFF8F8F0CC
:1009D00040404000000000000080C0C0C080000017
:1009E000C0C08000000080C0C000C0C0000080C047
:1009F000C00000000000C0C0C0C0C000C0C00000F7
:100A000000000000000000000000000000000000E6
:100A100000000000000000000000000000000000D6
:100A200000000000000000000000000000000000C6
:100A30000000000000C0F0F8FC3E1E0601000000AF
:100A40007F4141417F007F4141417F000080C0E004
:100A50007E5B4F5BFEC00000C000DCD7DEDEDED771
:100A6000DC00C000000000000000000000000000EA
:100A7000000000000000000000000000494949FF9C
:100A8000FFFFFFE0DFBFBF00BFBFDFE0FFFFFFFFF3
:100A900049494900000000001F3F6060E0BF1F009F
:100AA0007F7F071E381E077F7F007F7F0E1F3B71F1
:100AB0006000000000007F7F0C0C0C007E7E007F39
:100AC0007E0303007F7E03037E7E03037F7E000F91
:100AD0003E703C063C703E0F00327B49493F7E0031
:100AE0007F7E0303001E3F69696F2600000000003F
:100AF0000000000000030F1F3F3C78706000000002
:100B00007F4141417F007F4141417F00307B7F78C1
:100B100030202030787F3B0003000F7F0F0F0F7FC6
:100B20000F000300000000000000000000000000B3
:100B300000000000000000000000000001010107AB
:100B40000F0F7F0F7F0F0F7E0F0F7F0F7F0F0F078E
:100B50000101010000000000000000000001010090
:100B60000000000000000000000000000000000085
:100B70000000000000000000000000000000000075
:100B80000000000000000000000000000000000065
:100B90000000000000000000000000000000000055
:100BA0000000000000000000000000000000000045
:100BB0000000000000000000000000000000000035
:100BC0000000000000000000000000000000000025
:100BD0000000000000000000000000000000000015
:100BE0000000000000000000000000000000000005
:100BF00000000000000011241FBECFEFDAE0DEBFCE
:100C0000CDBF04B603FE27C08091B8059091B90509
:100C1000A091BA05B091BB058730904BA740B04B6F
:100C2000D1F41092B8051092B9051092BA0510923D
:100C3000BB0514BE84B7877F84BF0FB6F894A89510
:100C400080916000886180936000109260000FBE08
:100C5000E0E0F8E3099525E0A2EBB1E001C01D92C8
:100C6000A83BB207E1F711E0A0E0B1E0EEE6FDE558
:100C700002C005900D92A23BB107D9F70E94C5248E
:100C80000C946F2E0C940000E8EDF0E080818E7FD4
:100C900080831092E2001092DA001092E100A0EE40
:100CA000B0E08C9181608C9380818F77808319BCB8
:100CB000A7EDB0E08C918E7F8C9380818F7E8083B6
:100CC00010928C0308952091E4003091E50095E6A0
:100CD000A9012091EC00822F817020FF06C0809135
:100CE000E80080FF06C080E008952091E80022FD22
:100CF0001AC08091A003882389F0853089F0809103
:100D0000EB0085FD0FC02091E4003091E500421713
:100D10005307F9F29150E1F684E0089582E00895D6
:100D200083E0089581E00895EF92FF920F931F935F
:100D3000CF937C018B010E946306C82F811117C0DD
:100D40008091E80085FD0BC08091E8008E7780934C
:100D5000E8000E946306882399F3C82F08C0F701B2
:100D600081917F018093F1000150110949F78C2F87
:100D7000CF911F910F91FF90EF9008958091A20362
:100D800087FF13C08091E80082FF06C08091E800D1
:100D90008B778093E80004C08091A0038111F2CF8B
:100DA00008958091A0038823D9F38091E80080FF03
:100DB000F8CF8091E8008E77ECCF982F9093E900E0
:100DC000242F762F50E0891731F07091EC0020919C
:100DD000ED005091F00021FD07C09F5F973071F743
:100DE0008093E90081E008953091EB003E7F3093DD
:100DF000EB003091ED003D7F3093ED003091EB0042
:100E000031603093EB007093EC002093ED00509331
:100E1000F0002091EE0027FDE0CF80E00895CF9212
:100E2000DF92EF92FF920F931F93CF93DF93C8ED62
:100E3000D0E088818F7E8883E7EDF0E0808181605B
:100E4000808384E082BF81E080938C0388818E7FE1
:100E5000888302EE10E0F80110821092DA0081EE31
:100E6000C82ED12CF601108288818F7788838881E3
:100E70008068888388818F7D888319BC1092A00345
:100E80001092A10310929F0310929E0390EEE92E00
:100E9000F12CF70180818B7F80838881816088833A
:100EA00042E060E080E00E94DD06F60180818E7FF6
:100EB0008083F80180818160808380818860808365
:100EC000F70180818E7F8083888180618883DF91B4
:100ED000CF911F910F91FF90EF90DF90CF900895E9
:100EE000FC01CB012091A8033091A90326173707F5
:100EF00090F0009729F42091E8002E772093E800E5
:100F000040E0009751F4411108C08091E80082FF51
:100F100031C080E00895C901F3CF2091A0032223BE
:100F2000A9F12530A9F12091E80023FD2DC02091E1
:100F3000E80022FDEACF2091E80020FFE2CF3091C7
:100F4000F3002091F200009719F02830310558F095
:100F500041E02830310509F040E02091E8002E778B
:100F60002093E800CECF41914093F10001972F5F8D
:100F70003F4FE9CF8091A003882341F0853041F0B5
:100F80008091E80083FFC1CF81E0089582E0089559
:100F900083E008958091A003843011F482E00895E5
:100FA00081E00895089580919503089590917C03C0
:100FB000803F41F480917D0387FD10927D0399234A
:100FC00071F00895813F29F480917D031816ACF3E8
:100FD000F6CF823F81F497FFF2CF10927C0380918D
:100FE0007D0390917E03892B90917F03892B49F794
:100FF000109277030895833F19F4191674F3DFCF25
:10100000893F39F480917E031816CCF610927E0346
:10101000D6CF8A3F29F480917E0387FFD0CFF6CFC9
:101020008B3F39F480917F0387FFC9CF10927F03F4
:10103000C6CF8C3F29F480917F031816BCF3BFCF35
:10104000843F31F480917B038E7F80937B03B7CF05
:10105000853F21F480917B038D7FF7CF863F21F47C
:1010600080917B038B7FF1CF873F21F480917B03BD
:10107000877FEBCF883F21F480917B038F7EE5CF84
:101080008D3F31F4809117038E7F8093170397CFA4
:101090008E3F21F4809117038D7FF7CF8F3F09F0AA
:1010A0008ECF809117038B7FF0CF8091170380FD47
:1010B00016C081FD16C082FD16C08091770388237B
:1010C000A1F0883280F428E0829FC001112468E2F8
:1010D00070E00E94EA2D862F672B39F0089582E098
:1010E000089584E0089588E0089581E0089580914E
:1010F000170380FD14C081FD14C082FD16C08091CD
:101100007703882381F0843180F422E3829FC00139
:10111000112464E170E00E94EA2D862F08958CE08E
:10112000089589E1089585E0089582E30895803F58
:1011300031F40E947708819580937D030895813F63
:1011400019F40E947708F8CF823F31F40E947708A3
:10115000819580937C030895833F19F40E9477085A
:10116000F8CF893F29F40E94550880937E030895A3
:101170008A3F21F40E9455088195F7CF8B3F31F4C7
:101180000E945508819580937F0308958C3F19F440
:101190000E945508F8CF843F31F480917B03816031
:1011A00080937B030895853F21F480917B038260C7
:1011B000F7CF863F21F480917B038460F1CF873F96
:1011C00021F480917B038860EBCF883F21F48091EC
:1011D0007B038061E5CF8D3F31F4809117038160FF
:1011E0008093170308958E3F21F480911703826046
:1011F000F7CF8F3FB9F7809117038460F1CF9C013F
:101200004FB7F8948091690390916A03A0916B03A2
:10121000B0916C034FBF821B930B08958091120312
:10122000811110921203089580911103909110037F
:10123000892B90910F03892B8093B2019091120317
:10124000992391F0892B8093B20120E084EB91E007
:10125000FC013081019631112F5F31E08A3B930709
:10126000B9F721110E940E09E0912A03F0912B0396
:10127000309731F00280F381E02D82EB91E0099408
:101280000895E4EBF1E09191891303C0DF01119718
:101290001C9291E0EA3BF907B1F70895A4EBB1E0A5
:1012A000EFEF90E02D91821751F0EF3F19F42111EB
:1012B00001C0E92F9F5F9630A9F7EF3F09F4089529
:1012C0000E2E000CFF0BEE54FE4F82830895292F43
:1012D000220FE22FE90FEE0FE80F9E2F9770E69591
:1012E000E695E69585E0E89FF0011124EA51FD4F6F
:1012F00050E040E080E0219130E0092E02C03695B8
:1013000027950A94E2F721703327042E01C0220F9B
:101310000A94EAF7822B4F5F5F4F4530510559F72A
:101320000895292F220FE22FE90FEE0FE80F8E2FDD
:10133000877041E001C0440F8A95EAF7E695E6958B
:10134000E69585E0E89FF0011124EA51FD4F30E079
:1013500020E070E05191DF011197CB01022E02C015
:10136000969587950A94E2F7817081958527842365
:1013700085278C932F5F3F4F2530310559F708950E
:101380008091E5029091B402981301C008958F5F97
:101390008770FACF882341F08095909111038923BB
:1013A000809311030C9414090895882339F09091C7
:1013B0001103892B809311030C9414090895209133
:1013C000A8023091A9022817390771F09093A90259
:1013D0008093A802E0912A03F0912B03309721F02B
:1013E0000084F185E02D099408952091A6023091A2
:1013F000A7022817390771F09093A7028093A602DD
:10140000E0912A03F0912B03309721F00680F781B9
:10141000E02D09940895E0912A03F0912B03309771
:1014200021F00190F081E02D099480E00895FA0107
:1014300081110994FB01FDCFE0E4F3E01182828188
:1014400084608283089580918D03982F9E7F61F43C
:101450008170826080938D0380919003893718F0AA
:1014600088E78093900308958A34B0F3817088648C
:10147000F1CF8F929F92AF92BF92CF92DF92EF9275
:10148000FF920F931F93CF93DF93D82EC62EE901BF
:10149000E42FF0E0E455FF4F611113C04491942F05
:1014A000E42FE98348839A83DF91CF911F910F91B5
:1014B000FF90EF90DF90CF90BF90AF909F908F9074
:1014C0000895062F10E0E49186E0D89E7001112463
:1014D0002FEF30E0C701B9010E94D62D8D2D90E08D
:1014E000880F991FF5E5F69FA001F79F500D112475
:1014F000841B950B982F990F890FA901401B510B45
:10150000E49FD001E59FB00D11244B2FC89E6001D0
:101510001124CD2CDD245901AC18BD08EA9D6001D1
:10152000EB9DD00C11249D2D4901881A9108809EB5
:101530005001819EB00C909EB00C1124AB2CBB24AA
:101540002A193B09E29F8001E39F100D11246330AB
:101550007105D1F08CEFE81683E0F80670F4613085
:101560007105B1F062307105B9F08FEFE816F10442
:1015700008F097CF9B2F412F94CF6430710579F0FD
:1015800066307105B9F38DCF4D2D9E2FEB2F89CF8E
:101590004E2FED2D9B2F85CF912F4E2FF7CF9E2FC6
:1015A000E12F7FCF9091270392FF06C0282F28714B
:1015B0002830F9F4877F846093FF06C0282F2871B4
:1015C0002831F1F4877E84612091280320FF06C032
:1015D000382F38713830D9F4877F816021FF06C0F9
:1015E000282F28712831D1F4877E816194FD877E70
:1015F0000895282F24712430F9F68B7F8860DCCF82
:10160000282F2471243101F78B7E8861DDCF382F9C
:101610003171313019F78E7F8860E0CF282F21712A
:10162000213121F78E7E8861E1CFCF93DF93972F11
:1016300070E026E0929F600D711D1124FB013CE3D8
:10164000839FE00DF11D1124EE0FFF1FED54FD4FA0
:10165000C591D491CE01C03ED10509F46DC060F5AD
:10166000C133D10509F4B2C088F4C932D10509F4F7
:10167000A6C0CA32D10509F4B0C0C130D10549F1C4
:101680002497C13AD10508F063C023C0C933D105FE
:1016900009F44BC0C238D10509F447C0C533D105A0
:1016A00009F486C0C83AD10508F09EC0C53AD105F4
:1016B00020F3849790640DC0C43ED10509F45BC04B
:1016C00058F4C23ED10509F446C0C33ED10509F421
:1016D00047C0DF91CF910895C63ED10509F456C0A9
:1016E000C73ED10509F459C0C11542E5D40708F039
:1016F000AEC0C11521E5D20708F0F8C0C83ED1053B
:1017000040F3C11530E5D30708F086C0C11540E4A9
:10171000D40708F0E8C0CF3FD10511F008F076C03B
:101720009065C03FD105A8F613C020912703237010
:1017300081F280EE90E0CDCF2091270320FDF8C00C
:101740003091280330FFC5CF83EE90E024FFC1CF56
:1017500090E080E0BECF2091270322FDF5CFB9CFE6
:101760002091270322FDE7C03091280330FDE1CF0F
:1017700024FFAFCFEDCF2091280321FFAACF809186
:10178000270384FDE5CF87EE90E0A3CF20912703C8
:1017900023FF9FCF24FDDCCFF6CF2091270323FD2D
:1017A000CDC03091280331FFE3CF84EE90E091CF9C
:1017B0002091270325FF8DCF89E290E08ACF2091E9
:1017C000270325FF86CF85E390E083CF2091270371
:1017D00026FF7FCF8AE290E07CCF2091270326FF6F
:1017E00078CF81E390E075CF9E01285A31092731E7
:1017F000310508F0ADCF885AE82FF0E0EE0FFF1F5B
:10180000E459FE4F80819181946463CFDA95C115CC
:10181000DF4108F45ECF9CCF9E01F4E0369527951A
:10182000FA95E1F7237086958695837030E2839F61
:10183000C0011124922BC37021E030E002C0220FBE
:10184000331FCA95E2F7822B932B9C6842CFC115B8
:1018500046E5D40718F5C11525E5D20708F052C0B2
:10186000C11534E5D307A8F49C2F96959695AE0143
:101870004370552721E030E002C0220F331F4A9504
:10188000E2F740E2C115D345B0F5949FC0011124A1
:10189000DACF9C2F8827846F906A1BCFC1158AE509
:1018A000D80780F4C11599E5D907A8F5CE01985558
:1018B0008F3F910511F008F04BCF9C2F8827806F48
:1018C000906A07CFCE0190568115904208F040CF24
:1018D0008D2F8F710E94D20A90E0982F8827882739
:1018E0009F718C2B16C09F70906AF3CE9C2F882717
:1018F000816F906AEECE949FC0011124822B932BAE
:101900009A68E7CE0E94D20A90E0982F882788270D
:101910009F719062DECE8C2F8F700E94D20A34E0CD
:10192000D695C7953A95E1F7CF709C2F9069D1CEA7
:1019300089E390E0CECE82EE90E0CBCE86EE90E0D2
:10194000C8CEBF92CF92DF92EF92FF920F931F9378
:10195000CF93DF938C01C0904303D0904403E09079
:101960004503F09046038091130390911403A091D6
:101970001503B0911603C82AD92AEA2AFB2ACFE117
:10198000D0E0BC2ED701C6010C2E04C0B695A79599
:10199000979587950A94D2F780FD0EC0219788F716
:1019A000B12C8B2DDF91CF911F910F91FF90EF9074
:1019B000DF90CF90BF900895B8018C2F0E94150B37
:1019C000019761F3EECFCF93DF93D82FC92F0E94F9
:1019D000A10C6D2F7C2FDF91CF910C94150B0E94E1
:1019E000E30C282F892F8F70392F32953F70903C50
:1019F00080F43A30B0F4343020F4323090F480E0A7
:101A000008953630E1F781E0283E88F0213FB9F7AC
:101A10000EC03C3011F03F3091F786958695869543
:101A2000089581E0203F39F018F4283E40F70895EA
:101A3000243F29F7FCCF0895CF93DF93682F80913F
:101A4000B3059091B4056A30B9F42091AA038D5A78
:101A50009340622F70E00E94D62D281B822F66E0F3
:101A60000E94BC2DC82FC15018F4DF91CF9108956A
:101A700080E20E941C0DF7CF6D30F9F49C012D5AC5
:101A800033404091AA03642F70E0C9010E94D62D13
:101A9000481B842FA901480F511D4115524018F0D1
:101AA00080E030E020E0820F932F911D83559C4F02
:101AB0009093B4058093B305D8CF26E0FC01ADEA3E
:101AC000B5E001900D922A95E1F7603E08F454C00C
:101AD00026E0FC0111922A95E9F7C091B305D09157
:101AE000B40546E050E0BE018DEA95E00E941A2E52
:101AF000CD5AD3409E012A5F3F4F892B21F185E0CB
:101B0000D695C7958A95E1F741E050E0CA0102C039
:101B1000880F991FCA95E2F76091AB037091AC03EF
:101B2000862B972BB901E5E076956795EA95E1F765
:101B300002C0440F551F6A95E2F7842B952B9093B2
:101B4000AC038093AB034091AA03642F70E0C901FA
:101B50000E94D62D481B463010F4240F311D21154C
:101B600082E0380710F030E020E023553C4F3093FE
:101B7000B4052093B30579CFF6E06F9FB00111242F
:101B80006A54794F46E050E00E94042EA6CFCF93CE
:101B9000DF93EC01FE018491811103C0DF91CF91AD
:101BA00008950E941C0D2196F5CFCF92DF92EF92FF
:101BB000FF920F931F93CF93DF936C017B0164E639
:101BC00070E088E70E940B2BEC0197FD12C010E03B
:101BD00000E0F601E00FF11F849164E670E00E94DE
:101BE000672BEC01892B29F40F5F1F4F0E151F0582
:101BF00081F70E94F42BCE01DF91CF911F910F91BD
:101C0000FF90EF90DF90CF9008952FB7F8948091D8
:101C1000690390916A03A0916B03B0916C032FBF8D
:101C2000805A9541AF4FBF4F80936D0390936E03E1
:101C3000A0936F03B093700380917103811108C06A
:101C400062E070E081EB92E00E94D50D892B19F0E3
:101C500080917103089581E080937103F9CFCF9350
:101C600084E090E00E94272EC82F81E290E00E943D
:101C7000272E982F8C2FCF910895CF93DF9300D0EC
:101C80000F92CDB7DEB79091A003943019F58983F8
:101C90006A837B8382E08093E9008FEF9091E80074
:101CA000815095FD06C095ED9A95F1F700008111E0
:101CB000F5CF8091E80085FF0DC050E040E063E083
:101CC00070E0CE0101960E9494068091E8008E7724
:101CD0008093E8000F900F900F90DF91CF910895BF
:101CE000CF93DF93D82FC92F0E94CA07823011F0FB
:101CF000843039F46D2F7C2F84E0DF91CF910C94E8
:101D00003D0EDF91CF910895BC0183E00C943D0E10
:101D1000CF93DF93D82FC92F0E94CA07823011F0CA
:101D2000843001F582E08093E9008FEF9091E80024
:101D3000815095FD06C095ED9A95F1F7000081114F
:101D4000F5CF8091E80085FF0DC050E040E066E0EF
:101D500070E08D2F9C2F0E9494068091E8008E7772
:101D60008093E800DF91CF910895CF93DF93D82F30
:101D7000C92F0E94CA07823011F0843049F581E0F2
:101D80008093E9008FEF9091E800815095FD06C0A7
:101D900095ED9A95F1F700008111F5CF8091E8005B
:101DA00085FF16C050E040E068E070E08D2F9C2F6A
:101DB0000E9494068091E8008E778093E80088E086
:101DC000ED2FFC2FA6E9B3E001900D928A95E1F783
:101DD000DF91CF91089560910E0180918D0380FF76
:101DE00020C080910D0143E0849FC00111248153E4
:101DF0009E4F539A2BB1277F3BB138605FB7F89461
:101E0000FC01649FE00DF11D1124BF0168177907E3
:101E1000D1F45FBF87EC90E00197F1F700C00000BC
:101E2000089580910F019091100123E0829FF001AD
:101E30001124E153FE4F8917A0F6118210821282FD
:101E40008F5F3396F8CFFC014191CF01E8E03BB9B9
:101E5000000000C047FF2BB9440F000000C000C0C5
:101E600000C02BB900C0EA9591F7D0CF0F931F9314
:101E7000CF93DF93EC0110E000E0909111019017F7
:101E8000110609F06CF40E94EB0E8C8190E0019633
:101E9000817099278C83DF91CF911F910F910895C5
:101EA00020910F01A801420F511D9A01220F331FEB
:101EB000240F351F21533E4F4C8160918F03809139
:101EC0008E0396959017110669F064F0442361F033
:101ED00040919003493708F048E70E94390A0F5FA4
:101EE0001F4FCBCF4423A1F340E0F7CFEF92FF92F7
:101EF0001F93CF93DF93EC0110E0EE24EA94F12CD2
:101F000060911101161770F00E94EB0E9A818C817E
:101F100090FF2AC08F5F8C83DF91CF911F91FF903C
:101F2000EF90089520910F01422F410F5527551F23
:101F3000CA019A01220F331F280F391F21533E4F28
:101F400040919003493708F048E770E0C7010E94CC
:101F5000EA2D962F8C8160918F03199F800D11249B
:101F60000E94390A1F5FCCCF8150D5CF9F92AF928C
:101F7000BF92CF92DF92EF92FF920F931F93CF9376
:101F8000DF93EC018A81BB24BA9480FD02C0BB249C
:101F9000B394A09011018C81811109C081E0B81225
:101FA00025C08FEF8A0D8093CC0181E08C83F12CCA
:101FB000E12CEA14F0F00E94EB0E8091CC0191E04C
:101FC000B91261C081115AC0809111018150809372
:101FD000CC011C82DF91CF911F910F91FF90EF9068
:101FE000DF90CF90BF90AF909F9008951092CC015A
:101FF000DCCF00910F010E0D1F2D111DC801880FA0
:10200000991F080F191F01531E4FF80111821082EA
:10201000128234E0C32ED12C912C8091CC01890DF9
:10202000873444F166E40E94C82D892F082E000CE5
:10203000990B8E159F05A9F4809190038C9DA001AA
:102040008D9D500D112455954795559547954937C8
:1020500008F048E7980160918F0380918E030E94F9
:10206000390A9B0CF1E0CF1AD108B9F68FEFE81AC4
:10207000F80A9FCF87FFDACF8A0DD8CF815080939F
:10208000CC01BC82A7CF90E001966091110170E075
:102090000E94EA2D8093CC018C839CCFCF92DF925B
:1020A000FF920F931F93CF93DF93EC018C818111EB
:1020B00009C081E08C831092CD0192E090930C01D5
:1020C00080930B0110910F019091100183E0189FF4
:1020D000F0011124E153FE4F812F891778F100E0C0
:1020E00093E0F92E60911101061770F10E94EB0E3A
:1020F00080910B012091CD01280F2093CD0190916B
:102100000C01980F90930C01191654F4022E000C38
:10211000330B409111014150550B2417350734F012
:10212000819580930B01813009F41C82DF91CF915E
:102130001F910F91FF90DF90CF9008951182108230
:1021400012828F5F3396C9CFC02ED12C70E0C601AA
:102150000E94EA2D810F482F50E02091CD01022EE0
:10216000000C330BC216D306D4F020910C01022EC2
:10217000000C330B2C153D0594F08F9D900111241C
:1021800021533E4F40919003493708F048E7609152
:102190008F0380918E030E94390A0F5FA3CFFA014B
:1021A000EE0FFF1FE40FF51FE153FE4F1182108267
:1021B0001282F3CF0F931F93CF93DF938C01FC0117
:1021C0008481958101968170992795838483C0E0ED
:1021D000D5E580911101C81730F0DF91CF911F91A3
:1021E0000F910C94EB0E20910F01422F4C0F5527AD
:1021F000551FCA019A01220F331F280F391F21537F
:102200003E4F40919003493708F048E78C2F869560
:10221000F80164817581860F972F911D81706091FF
:102220008F038D9F802D11240E94390ACF5FD1CF5B
:1022300090918D0390FF14C090910F012091100197
:1022400033E0939FF0011124E153FE4F921710F0F9
:102250000C94EB0E8183608342839F5F3396F6CFAD
:1022600008950F931F93CF93DF9300D00F92CDB7B4
:10227000DEB78C018091CE0181110AC09E012F5FD3
:102280003F4F48E76FEF0E94390A8A818093CE0161
:10229000F8016481613049F06230F1F08091CE0143
:1022A00040E0662331F040E019C06091CE0140E08B
:1022B00080E00E941811F801848190E0019663E0AB
:1022C00070E00E94EA2D84830F900F900F90DF91B1
:1022D000CF911F910F9108954091CE0180E060E071
:1022E000E8CFCF93DF9300D00F92CDB7DEB79091B8
:1022F0008D0390FF0DC0493708F048E79E012F5F1E
:102300003F4F0E94390A4B8169818A810E941811CE
:102310000F900F900F90DF91CF910895CF93DF939F
:10232000EC01EC81F0E0EF54FE4F4491EDE8F3E076
:10233000628181810E9471118C818F5F8C83DF911A
:10234000CF910895CF93DF93EC01EDE8F3E0438163
:1023500062818C810E9471118C818F5F8C83DF91EF
:10236000CF910895EDE8F3E080818E7F80830E9415
:102370001C0AE0E4F3E08281816082832FEF80E732
:1023800092E0215080409040E1F700C000000C94A2
:10239000EB0E8091CB01811110C08091D80080613B
:1023A0008093D8008AE18A95F1F700C09091D90016
:1023B000917082E0891B8093CB0181E09091CB01E9
:1023C000913009F080E008950F931F93CF93DF932E
:1023D0008B01D82FC92F0E94230AA8016D2F7C2FB3
:1023E00088E090E0DF91CF911F910F910C944D2EDA
:1023F000CF93DF9300D000D0CDB7DEB780919103AB
:10240000833018F48F5F8093910380918D039091B6
:102410008E03A0918F03B091900389839A83AB833D
:10242000BC83BC01CD010F900F900F900F90DF91F6
:10243000CF910C94E411CF93DF9300D000D0CDB7AF
:10244000DEB780919103882319F081508093910326
:1024500080918D0390918E03A0918F03B091900392
:1024600089839A83AB83BC83BC01CD010F900F900D
:102470000F900F90DF91CF910C94E411AF92BF9227
:10248000CF92DF92EF92FF920F931F93CF93DF9340
:1024900000D000D000D00F92CDB7DEB7082FF62EB7
:1024A000142FD22E90918D0390FF41C0E92FE69515
:1024B000AE2FB0E0A95CBE4F8C91809340039E7F0D
:1024C000923009F045C0493708F048E79E012F5F78
:1024D0003F4F6F2D802F0E94390A4B8169818A817D
:1024E0000E94181180918E03801308C080918F0381
:1024F0008F1104C080919003811729F080914203CD
:1025000082608093420300938E03F0928F031093B6
:102510009003DD2061F080918D0390918E03A09156
:102520008F03B0919003BC01CD010E94E411279666
:102530000FB6F894DEBF0FBECDBFDF91CF911F91D4
:102540000F91FF90EF90DF90CF90BF90AF900895E4
:10255000823019F410919003C5CF863019F40091A0
:102560008E03C0CF8930D9F3893109F0BBCFE9514F
:102570008E2F8170C82EE695F0E0E455FE4FA590B1
:10258000B490E12CBB2460911101E61618F00E9472
:10259000EB0EA8CF2E2D30E0EA9CC001EB9C900DF5
:1025A000112470E00E94D62D802FC11016C0860F16
:1025B00040910F01420F532F511D9A01220F331FDB
:1025C000240F351F21533E4F412F193708F048E79C
:1025D0006F2D0E94390AE394D6CF861BE9CFEDE830
:1025E000F3E0438126E0421B08F440E021E06281F1
:1025F00081810C943E12EDE8F3E0438126E0420F26
:1026000008F44FEF21E0628181810C943E12EDE8E5
:10261000F3E0628126E0621B08F460E021E0438180
:1026200081810C943E12EDE8F3E0628126E0620FB6
:1026300008F46FEF21E0438181810C943E12EDE8B4
:10264000F3E0818121E04381628186500C943E1247
:10265000EDE8F3E0818121E0438162818A5F0C949F
:102660003E12CF93DF9300D000D0CDB7DEB7EDE8B8
:10267000F3E083E0808311828FEF828388E7838396
:102680001482A0E4B3E012968C91129783601296A4
:102690008C9380819181A281B38189839A83AB835A
:1026A000BC83BC01CD010F900F900F900F90DF9174
:1026B000CF910C94E4116CEE7EEF90E080E00E94EC
:1026C000592E60E082E090E00E943B2E60E083E0C3
:1026D00090E00E943B2E109213031092140310926C
:1026E00015031092160360E084E090E00E943B2EF8
:1026F00060E081E290E00E943B2E60E085E090E0A7
:102700000E943B2E60E086E090E00E943B2E6FEF3F
:1027100087E090E00E943B2E40E050E0BA0188E064
:1027200090E00E944D2E60E08DE090E00E943B2EF4
:1027300040E050E0BA0188E190E00E944D2E60E058
:1027400087E190E00E943B2E40E050E0BA018CE12E
:1027500090E00E944D2E60E080E290E00E943B2ECF
:1027600040E050E0BA018FE090E00E944D2E40E042
:1027700050E0BA0183E190E00C944D2E78941F92C2
:102780001FB61F9211248F939F93AF93BF93809195
:10279000690390916A03A0916B03B0916C03019659
:1027A000A11DB11D8093690390936A03A0936B03ED
:1027B000B0936C03BF91AF919F918F911F901FBEFB
:1027C0001F9018952FB7F8948091690390916A0330
:1027D000A0916B03B0916C032FBF0895E0912A0381
:1027E000F0912B03309749F082E080937A030480C4
:1027F000F581E02D8AE793E009950E94E21390931A
:1028000076038093750308951092100310920F03BE
:102810000E94140986E0EAE7F3E0DF011D928A9541
:10282000E9F710927703109217030E94EE1390E0DD
:1028300080E00E94F50990E080E00C94DF09462FCB
:10284000572FBC01DC01CA0186709927AA27BB2734
:102850000697A105B10559F448604093430350938E
:10286000440360934503709346030C940414477F1C
:10287000F4CF0F931F93CF93DF9300D000D0CDB749
:10288000DEB741E050E060E070E004C0440F551F47
:10289000661F771F8A95D2F7409550956095709581
:1028A0008091430390914403A0914503B091460366
:1028B0008A019B01082319232A233B2309831A83B6
:1028C0002B833C83C901B8010F900F900F900F909C
:1028D000DF91CF911F910F910C941F1490910E03D3
:1028E0008095892380930E03282F277071F4282F59
:1028F000082E000C330B9217130639F08595859539
:1029000085950E94391410920E0308950F931F931A
:10291000CF93DF9300D000D0CDB7DEB741E050E0D9
:1029200060E070E004C0440F551F661F771F8A9552
:10293000D2F78091430390914403A0914503B09155
:1029400046038A019B01082B192B2A2B3B2B098359
:102950001A832B833C83C901B8010F900F900F900D
:102960000F90DF91CF911F910F910C941F146093E2
:1029700013037093140380931503909316030C9420
:10298000041410921103E4EBF1E086E0DF011D92E4
:102990008A95E9F70C9404141F93CF93DF93CDB776
:1029A000DEB7AA970FB6F894DEBF0FBECDBF82EA9E
:1029B00093E0FC0101962091F100208323E08A3A04
:1029C0009207B9F78091A303893009F456C0C8F47F
:1029D000823009F4B1C0833009F480C0813071F1D4
:1029E0008091E80083FF85C28091A2039091A303A8
:1029F0009A3008F07EC2E92FF0E0EF58F14D0C94C8
:102A0000FE2D8A3009F487C08B3051F78091A203E4
:102A1000813231F78091A6039091A703892B01F7AA
:102A20008091E800877F8093E8000E94BE06809135
:102A3000A403809336010E94C114D2CF8091A203D7
:102A4000813A71F68091E800877F8093E800809159
:102A5000A6039091A703892B61F468E086E993E0CF
:102A600070E00E9470078091E8008B778093E80007
:102A7000B7CF60E090E080E0F3CF8091A203813295
:102A800009F0AECF8091A6039091A703029708F0BA
:102A9000A7CF8091E800877F8093E8008091E800CD
:102AA00082FF17C09091F3008091F200029729F401
:102AB0008091F1008B7F813021F48091F10080932F
:102AC00095038091E8008B778093E8000E94BE0612
:102AD00087CF8091A0038111E1CF82CF8091A203A3
:102AE000813A09F07DCF8091A6039091A703892BAD
:102AF00009F076CF8091E800877F8093E80080918D
:102B0000E80080FFFCCF809136018093F100809136
:102B1000E8008E77D9CF8091A203813209F060CF8F
:102B20008091E800877F8093E8000E94BE06809134
:102B3000A5038093940354CF8091A203813A09F0B6
:102B40004FCF8091E800877F8093E8008091E80074
:102B500080FFFCCF80919403D8CF803899F08238E1
:102B600009F0C7C18091A6038F70873008F0C1C1FA
:102B70008093E9008091EB0085FB882780F9109213
:102B8000E90006C080919E0390919F03911182609D
:102B90009091E800977F9093E8008093F100109265
:102BA000F1008091E8008E77A0C1882309F48EC1DE
:102BB000823009F09EC18091A403811191C180915E
:102BC000A6038F702FEF280F263008F092C1809354
:102BD000E9002091EB0020FF83C1933031F4809114
:102BE000EB0080628093EB007BC19091EB009061E1
:102BF0009093EB0021E030E001C0220F8A95EAF7C4
:102C00002093EA001092EA008091EB008860EACFFE
:102C100081116FC11091A4031F778091E300807828
:102C2000812B8093E3008091E800877F8093E80008
:102C30000E94BE068091E80080FFFCCF8091E300F7
:102C400080688093E30082E0111183E08093A00309
:102C500050C18058823008F04CC14091A40350917B
:102C6000A5034C3D83E05807A1F583E08A838AE2FF
:102C700089834FB7F894DE01139620E03EE051E2DD
:102C8000E32FF0E050935700E49120FF03C0E2955A
:102C9000EF703F5FEF708E2F90E0EA30C0F0C79684
:102CA0008D939D932F5F243159F74FBF8091E8009A
:102CB000877F8093E8006AE270E0CE0101960E946F
:102CC00070078091E8008B778093E80012C1C0966E
:102CD000E7CF2091A6033091A703852F9927833052
:102CE000910509F160F48130910509F47EC00297E5
:102CF00009F0FFC08BE390E0EBE3F6E03EC08132E9
:102D0000910509F466C0829709F0F3C021153105D9
:102D100009F475C02130310509F0EBC081E890E07D
:102D2000EAE7F5E02AC0CA019927423009F449C010
:102D30008330910568F40097B1F0019709F0D9C08C
:102D4000EEE9F6E0E4918E2F90E0EEE9F6E012C0B5
:102D5000039709F0CEC0E8E8F6E0E4918E2F90E00A
:102D6000E8E8F6E007C0E2EBF6E0E4918E2F90E0B1
:102D7000E2EBF6E0009709F4BCC02091E800277F61
:102D80002093E8002091A8033091A90382179307AC
:102D900008F49C0140E021153105B1F5411134C022
:102DA0008091E80082FD8DCF8091A003882309F4F3
:102DB00088CF853009F485CF8091E80083FFF0CF7C
:102DC00080CFEEE8F6E0E4918E2F90E0EEE8F6E0BA
:102DD000D1CF2115310571F02130310509F089C0BD
:102DE00089E090E0E6E6F6E0C8CF82E190E0E6E731
:102DF000F6E0C3CF89E090E0EDE4F6E0BECF80E4FA
:102E000090E0EBEFF5E0B9CF8091A003882309F4BF
:102E100058CF853009F455CF8091E80083FD51CF1C
:102E20008091E80082FDBCCF8091E80080FFB3CFA5
:102E30009091F3008091F2002115310519F088304E
:102E4000910550F041E0089709F040E08091E800DA
:102E50008E778093E8009FCF44914093F1003196A4
:102E6000215031090196E8CF803809F042C08091A5
:102E7000E800877F8093E8008091A1038093F100B0
:102E800090CE811136C01091A403123090F580913C
:102E9000E800877F8093E8001093A1030E94BE069C
:102EA000112311F084E005C08091E30087FDFACF83
:102EB00081E08093A00342E061EC81E00E94DD06A6
:102EC00042E261EC82E00E94DD0613C08091A4031F
:102ED000813079F481E0933009F080E080939F03A2
:102EE0001092E9008091E800877F8093E8000E94BB
:102EF000BE068091E80083FF0AC08091E800877FCA
:102F00008093E8008091EB0080628093EB00AA96AA
:102F10000FB6F894DEBF0FBECDBFDF91CF911F91EA
:102F200008951F920F920FB60F9211242F933F9383
:102F30004F935F936F937F938F939F93AF93BF93C1
:102F4000CF93DF93EF93FF93D091E900DF708091EF
:102F5000EC00C82FC17080FDC0E81092E90080919C
:102F6000F000877F8093F00078940E94CC14109238
:102F7000E9008091F00088608093F000CD2BCF7045
:102F8000C093E900FF91EF91DF91CF91BF91AF9195
:102F90009F918F917F916F915F914F913F912F9171
:102FA0000F900FBE0F901F901895882309F459C0F9
:102FB000823871F40E940B0A81FF53C089E30E949A
:102FC0004E090E94140989E30E9441090C941409D6
:102FD000833859F40E940B0A80FF43C083E50E94A6
:102FE0004E090E94140983E5EFCF843859F40E94FA
:102FF0000B0A82FF36C087E40E944E090E94140922
:1030000087E4E2CF9CEF980F913AF0F290E2980FAC
:10301000983088F4877021E030E0A90102C0440FA5
:10302000551F8A95E2F7CA01809590911103892373
:1030300080931103CBCF9BE5980F933020F490E061
:1030400080E00C94F50998E5980F973120F490E012
:1030500080E00C94DF09803F20F00E94D6070C949A
:10306000EE130895CF93C82F882309F48FC08238B8
:10307000C1F40E940B0A81FD89C089E30E944E09B8
:103080000E9414092FEF31EE84E02150304080403F
:10309000E1F700C0000089E30E944109CF910C9440
:1030A00014098338A1F40E940B0A80FD6FC083E5E8
:1030B0000E944E090E9414099FEF21EE34E09150C6
:1030C00020403040E1F700C0000083E5E5CF8438C0
:1030D000A1F40E940B0A82FD59C087E40E944E09A8
:1030E0000E9414098FEF91EE24E08150904020401F
:1030F000E1F700C0000087E4CFCF8CEF8C0F813A5E
:1031000068F4E4EBF1E08191C817D1F131E0EA3BDA
:10311000F307C9F78C2F0E944E09C0CF80E28C0FB5
:10312000883068F4C77021E030E001C0220FCA95F2
:10313000EAF780911103822B80931103AFCF8BE5C7
:103140008C0F833038F42C2F2452330BC901CF91CC
:103150000C94F509E8E5EC0FE73150F4F0E0EE0FE0
:10316000FF1FE459FE4F80819181CF910C94DF09BC
:10317000C03F60F08C2F0E949708CF910C94EE1303
:103180008C2F0E9441090E941409C4CFCF91089549
:10319000CF93C82F0E9432188C2FCF910C94D51743
:1031A000811106C089EA611101C08AEA0C94C8182D
:1031B000813029F48EE46111F9CF8BE4F7CF0895C3
:1031C000CF93E0911A03EE0FEE0F20911301A22F7F
:1031D000A295AF70B0E090968C9190E02F7002C0F5
:1031E000959587952A95E2F781709927409112016C
:1031F000A42FA295AF70B0E090962C9130E04F7064
:1032000002C0359527954A95E2F7A90141705527E7
:1032100020FF02C042E050E0842BE82BE0931A0329
:10322000C0911903EF70F0E0E45AFE4F8081909155
:10323000A302890F8093A30284306CF0EC2F0C2E34
:10324000000CFF0BEF55FD4F80818F5F808360E0A6
:103250008C2F0E94D0188091A3028D3F6CF4EC2F2C
:103260000C2E000CFF0BEF55FD4F808181508083A9
:1032700061E08C2F0E94D0189091A302892F83784F
:1032800097FF03C081508C6F8F5F8093A302CF9113
:103290000895FF920F931F93CF93DF93C62FD42FE0
:1032A000022FFC0182818823A9F06093AA020E9468
:1032B000E2139093A5028093A402C77081E001C03D
:1032C000880FCA95EAF7DF91CF911F910F91FF9078
:1032D0000C94D5091091AA02161334C08091A4024F
:1032E0009091A5020E94FF08883C910558F5C0E224
:1032F000CD0F1D17A9F01770FF24F3948F2D01C077
:10330000880F1A95EAF70E94CA09C83048F48D2F31
:10331000877001C0FF0C8A95EAF78F2D0E94D509AE
:10332000802F0E94C818C830A0F4D77081E001C077
:10333000880FDA95EAF7DF91CF911F910F91FF90F7
:103340000C94CA09C77081E001C0880FCA95EAF7DA
:10335000F2CFDF91CF911F910F91FF90089560916F
:103360008D03669570E04BE050E080E091E00E94B4
:103370000D2E892B19F481E0809341030E94E21302
:1033800090933B0380933A0380914203846080933F
:1033900042030895CF93DF9300D000D0CDB7DEB7BE
:1033A00090918D0390FF47C0917081113AC0926057
:1033B00090938D0380914203816080934203662342
:1033C00081F080918D0390918E03A0918F03B09135
:1033D000900389839A83AB83BC83BC01CD010E9497
:1033E000E41160918D03669570E04BE050E080E061
:1033F00091E00E940D2E892BD9F00E941C0A81E0D9
:1034000080933D0320E04091900360918F03809171
:103410008E030F900F900F900F90DF91CF910C942F
:103420003E12853210F09864C3CF880F982BC0CF1E
:103430000E94AF19E4CF0F900F900F900F90DF9183
:10344000CF9108951F920F920FB60F9211242F93D0
:103450003F934F935F936F937F938F939F93AF931C
:10346000BF93EF93FF938091E10082FF09C08091A9
:10347000E20082FF05C08091E1008B7F8093E10034
:103480008091DA0080FF24C08091D80080FF20C0A6
:103490008091DA008E7F8093DA008091D90080FFDE
:1034A000AEC080E189BD82E189BD09B400FEFDCFD7
:1034B00081E08093A00380918C03811109C00E9458
:1034C00044060E940F078091E20084608093E2002E
:1034D0008091E10080FF17C08091E20080FF13C05F
:1034E0008091E2008E7F8093E2008091E200806113
:1034F0008093E2008091D80080628093D80019BC4C
:1035000085E08093A0038091E10084FF3CC080911E
:10351000E20084FF38C080E189BD82E189BD09B441
:1035200000FEFDCF8091D8008F7D8093D8008091E0
:10353000E1008F7E8093E1008091E2008F7E809396
:10354000E2008091E20081608093E2008091A1031B
:10355000882309F45AC084E08093A0030E94C11418
:103560000E940B0A1092930380919203882349F0E2
:1035700080918D03816080938D0360E086950E9429
:10358000CA190E94AF198091E10083FF27C0809182
:10359000E20083FF23C08091E100877F8093E100F8
:1035A00082E08093A0031092A1038091E1008E7FBE
:1035B0008093E1008091E2008E7F8093E200809111
:1035C000E20080618093E20042E060E080E00E94DF
:1035D000DD068091F00088608093F000FF91EF910C
:1035E000BF91AF919F918F917F916F915F914F911B
:1035F0003F912F910F900FBE0F901F90189519BCFF
:103600001092A00310928C0363CF8091E30087FD9A
:1036100002C081E0A1CF83E09FCF90918D0396956A
:103620008FEF890F913009F484E261E00C94CA199C
:1036300080918D0386958F5F853208F081E061E08F
:103640000C94CA1990918D0390FF07C09695981716
:1036500020F0961710F40C94181B61E00C94CA1912
:103660005F926F927F92AF92BF92CF92DF92EF9272
:10367000FF920F931F93CF93DF93CDB7DEB72997B8
:103680000FB6F894DEBF0FBECDBF7C01DC011396F0
:103690008D919C911497892B41F01C911196DC908F
:1036A000812F8D218F3F09F076C529960FB6F894AA
:1036B000DEBF0FBECDBFDF91CF911F910F91FF9065
:1036C000EF90DF90CF90BF90AF907F906F905F9022
:1036D00008950E94A10C082F682F89819A810E9469
:1036E0009109E12FF0E0B6E0DB9EE00DF11D112421
:1036F0001CE3019FE00DF11D1124EE0FFF1FED549F
:10370000FD4F05911491033F2CE5120709F488C081
:1037100008F055C0083D4CE5140709F47DC028E2C7
:1037200041E0093D5CE5150709F478C0073D6CE50B
:10373000160709F46DC0D70112969C91992309F4DC
:103740005EC51092AA020631BCE51B0708F070C0E6
:103750000230ECE51E0708F431C50E942F0E90934D
:103760002803809327030631FCE51F0708F09BC060
:1037700002302CE5120708F089C0609127031091F0
:10378000280384E090E00E943B2E612F81E290E0CC
:103790000E943B2E29960FB6F894DEBF0FBECDBF18
:1037A000DF91CF911F910F91FF90EF90DF90CF901D
:1037B000BF90AF907F906F905F900C94C114053FC5
:1037C0007CE5170789F127E245EE66EE063F8CE5BA
:1037D000180741F027E245EE64EE043F9CE5190727
:1037E00009F0A9CFC70129960FB6F894DEBF0FBE26
:1037F000CDBFDF91CF911F910F91FF90EF90DF90A0
:10380000CF90BF90AF907F906F905F900C944919CC
:1038100026E241EE61EEE6CF27E245EE65EEE2CF2D
:1038200026E241EE60EEDECF26E241EE62EEDACF36
:1038300098012A5F3C452930310508F48ECF0631C6
:10384000ECE51E0709F0BAC4809111038A7A91E071
:1038500009F490E09093AB028111BBC089E20E9411
:103860004E0929960FB6F894DEBF0FBECDBFDF918B
:10387000CF911F910F91FF90EF90DF90CF90BF906D
:10388000AF907F906F905F900C941409F801E35013
:10389000FC45809127038160E331F10590F4E55800
:1038A000F14D0C94FE2D0A5F1C450930110508F0FE
:1038B00064CF0257114DF8010C94FE2D809127031F
:1038C00082608093270359CF809127038460F9CFCA
:1038D000809127038860F5CF8091280381608093D1
:1038E00028034BCF809128038260F9CF8091270372
:1038F0008061E7CF809127038062E3CF8091270327
:103900008064DFCF0E94C114809127038068D9CFE3
:10391000809127038C60D5CF809128038360DFCF0F
:10392000809127038E7FCDCF809127038D7FC9CFD4
:10393000809127038B7FC5CF80912703877FC1CFDD
:10394000809128038E7FCBCF809128038D7FC7CFB6
:10395000809127038F7EB5CF809127038F7DB1CFD4
:10396000809127038F7BADCF0E94C11480912703E4
:103970008F77A7CF80912703837FA3CF80912803E0
:103980008C7FADCF8091270382FB992790F921E0AE
:10399000922790FB82F990FB83F993CF80912803C3
:1039A000982F909591708E7F892B90FB81F997CFFE
:1039B0000E94C11490912703892F97FB87F98058A3
:1039C00080CF61E08EE090E00E943B2ED6CE60E09A
:1039D000F9CF85E344CF8091AB02811104C089E225
:1039E0000E9441093ECF85E3FBCF80918D0380FF8C
:1039F00038C08E7F80938D0300918D0310918E03CC
:103A000020918F03309190030E831F83288739877D
:103A1000C901B8010E94E4110E941C0A809142036E
:103A20008160809342031FEF20E732E01150204075
:103A30003040E1F700C0000029960FB6F894DEBFD1
:103A40000FBECDBFDF91CF911F910F91FF90EF90EF
:103A5000DF90CF90BF90AF907F906F905F900C946D
:103A6000EB0E816080938D0361E0869529960FB6F9
:103A7000F894DEBF0FBECDBFDF91CF911F910F91A4
:103A8000FF90EF90DF90CF90BF90AF907F906F90BE
:103A90005F900C94CA194DE05BE168E17BE12996E7
:103AA0000FB6F894DEBF0FBECDBFDF91CF911F914F
:103AB0000F91FF90EF90DF90CF90BF90AF907F90ED
:103AC0006F905F900C94170A48E15BE16DE07BE139
:103AD000E6CF4FE153E168E273E1E1CF48E253E121
:103AE0006FE173E1DCCF47E053E163E173E1D7CFEE
:103AF00043E153E167E073E1D2CF4FEE52E16BEF68
:103B000072E1CDCF4BEF52E16FEE72E1C8CF4BE1E6
:103B100052E168EF71E1C3CF48EF51E16BE172E12F
:103B2000BECF61E081E0A2CF65E082E029960FB6CA
:103B3000F894DEBF0FBECDBFDF91CF911F910F91E3
:103B4000FF90EF90DF90CF90BF90AF907F906F90FD
:103B50005F900C94221B68E086E0E8CF6EE089E07D
:103B6000E5CF64E18FE0E2CF67E185E1DFCF61E09F
:103B700088E17CCF62E289E1D9CF61E083E276CF50
:103B80000E3D1C4509F43EC0D701CD90DC90992331
:103B900009F44DC0C6010E94A10C182F682FC60160
:103BA0000E949109B601812F0E94150B8C01582E9D
:103BB000F701658062943FE0632272807110109279
:103BC000100380910E03877079F0772069F080E20E
:103BD000800F883048F082E00E946E1480910E03BE
:103BE0008770BB24B3948111B12C812F82958F7083
:103BF000C82ED12C8C3008F054C0F601E956F14D96
:103C00000C94FE2D29960FB6F894DEBF0FBECDBFE3
:103C1000DF91CF911F910F91FF90EF90DF90CF90A8
:103C2000BF90AF907F906F905F900C945B13C60134
:103C30000E946709182FB6CFF12FFF70AF2E107FAB
:103C400019F0A29420EFA222802F7720C9F0AA2099
:103C500069F090E2900F983010F001110BC0809144
:103C60001103A82AA09211030E941409802F0E9418
:103C7000321817C080911003A82AA0921003F4CF25
:103C80000E94D517AA2069F0A094005E083010F0B9
:103C9000511047C080911103A822A09211030E94E5
:103CA0001409A8E0CA1AD108B4E0CB16D10410F464
:103CB0000E940B0ABB20A9F080910E0380FD11C069
:103CC000F70112828595859585950E948614C70116
:103CD0000E94301B80910E038595859585950E94E5
:103CE000391485E0F701DE01119601900D928A9555
:103CF000E1F789819A810E9467099A81E981F0E060
:103D000006E0909FE00DF11D11241CE3819FE00D62
:103D1000F11D1124EE0FFF1FED54FD4F859194917D
:103D2000C4CC80911003A822A0921003B8CF212FF9
:103D30002F70A22E107F103219F0A29490EFA922BA
:103D4000552089F031E0531679F17720D1F16620C2
:103D500089F1D70115968C91159780FF87CF8F70C9
:103D600015968C9327C0772091F0909112038A2D9D
:103D7000892B611003C00E94D50993CF41E06412E2
:103D8000FACF981709F48DCF809312038ACF611070
:103D900006C00E940E098A2D0E94CA0982CF51E0F6
:103DA000651609F47ECFF5CF772031F065E0661512
:103DB00008F477CF8A2DDFCF74E0761508F471CF41
:103DC000EACF662041F3093349F4BFEFE7EEF3E0B1
:103DD000B150E040F040E1F700C00000802F0E94A9
:103DE000D5175FCF812F86958695837061F08130DE
:103DF00009F057CFC8019370711002C090E080E0C5
:103E00000E94DF094ECFC8019370711002C090E08C
:103E100080E00E94F50945CF772009F1053F99F030
:103E2000063FB9F0043F49F48091AC029091AD0295
:103E300081609093AD028093AC02802F0E9497081E
:103E40000E94EE132ECF8091AC029091AD02826061
:103E5000F0CF8091AC029091AD028460EACF053F33
:103E600089F0063FA9F0043F49F48091AC0290919B
:103E7000AD028E7F9093AD028093AC02802F0E94A2
:103E8000D607DECF8091AC029091AD028D7FF2CF4C
:103E90008091AC029091AD028B7FECCF812F83702B
:103EA00009F072C07110FDCE202F22952695277043
:103EB000220F220F402F4F7050E070E060E0022E82
:103EC00004C0440F551F661F771F0A94D2F780E085
:103ED00090E0DC0104FF0FC08FE090E0A0E0B0E0D4
:103EE00004C0880F991FAA1FBB1F2A95D2F780957F
:103EF0009095A095B095E12FE695E695E370E230B8
:103F000051F1E33009F10091130310911403209152
:103F1000150330911603E13099F0842B952BA62BD5
:103F2000B72BAC01BD0140235123622373234E8381
:103F30005F8368877987CB01BA010E94B714B1CE3D
:103F4000402B512B622B732B8A019B01082B192BC1
:103F50002A2B3B2B12C0842B952BA62BB72B4091E1
:103F600013035091140360911503709116038C0193
:103F70009D0104271527262737270E831F832887AF
:103F80003987C901B801D9CF8695772011F0812FE3
:103F90008170882309F485CE202F229526952770DD
:103FA000220F220F402F4F7050E070E060E0022E91
:103FB00004C0440F551F661F771F0A94D2F780E094
:103FC00090E0DC0104FF0FC08FE090E0A0E0B0E0E3
:103FD00004C0880F991FAA1FBB1F2A95D2F780958E
:103FE0009095A095B095E12FE695E695E370E230C7
:103FF00081F1E330F9F000914303109144032091E3
:10400000450330914603E13089F0842B952BA62B94
:10401000B72BAC01BD0140235123622373234E8390
:104020005F8368877987CB01BA0110C0402B512B81
:10403000622B732B8A019B01082B192B2A2B3B2BFC
:104040000E831F8328873987C901B8010E941F1476
:1040500028CE842B952BA62BB72B40914303509150
:10406000440360914503709146038C019D01042730
:10407000152726273727E4CF1F70772029F0812FB7
:104080000E948614802F77CE802F0E94CA09812F2C
:104090000E94391406CE802F22EF521609F446C032
:1040A000251570F030EF531609F141EF5416B1F1B8
:1040B000772009F460C06110D9CD812F8F7133C092
:1040C00053EF5516C1F164EF5612F2CF772009F481
:1040D00047C01F71812F0E94861458E0159FC001B0
:1040E0001124836080930E03812F1DC0772089F0F7
:1040F00074E0761508F4D5CD1F7181E090E0A0E062
:10410000B0E004C0880F991FAA1FBB1F1A95D2F7F1
:10411000A4CF25E0261508F4C4CDEECF812F8F71F2
:10412000772009F4B5CF0E948614BBCD812F8F7103
:104130007720C9F3ADCF60E070E0CB01772009F4C0
:1041400085CF1F7181E090E0A0E0B0E0AC01BD013F
:1041500004C0440F551F661F771F1A95D2F75FCF13
:1041600081E00E946E1461E0661508F09ACD82E04D
:104170000E946E1496CD662059F0893309F02ECE38
:104180007FEF87EE93E0715080409040E1F724CEBE
:10419000812F8F717DCF85E0F701DE0111960190AF
:1041A0000D928A95E1F7D70112962C9189819A8117
:1041B00021118FCA0E946709082F93CA0115BCE517
:1041C0001B0709F0DDCC0E94C1145FEF64E37CE0C3
:1041D000515060407040E1F700C0000087E797E76A
:1041E000909301088093000888E19AE00FB6F89454
:1041F000A895809360000FBE90936000FFCF0631BA
:10420000FCE51F0709F4E7CB809111038272F801E6
:10421000E25CFC45E431F10508F0B6CCED55F14D1A
:104220000C94FE2D1F93CF93DF938091B302807F78
:10423000A9F48091B002882389F08091E502D091A1
:10424000B4026091AE027091AF02A091B102B09140
:10425000B202C62FC72316E0D81304C0DF91CF9156
:104260001F91089590E0109711F0CF3F19F4019637
:104270008770F2CF189F9001199F300D1124F9011A
:10428000EB54FD4F41814713F2CF40814613EFCFEE
:1042900042814111ECCF438154814A1B5B0B483C66
:1042A000510528F78091B3028F7080618093B3022B
:1042B000F901E654FD4F80818F70806180838EEA22
:1042C00092E00E94301BDF91CF911F910C94C009A6
:1042D000AF92BF92CF92DF92EF92FF920F931F9314
:1042E000CF93DF93CDB7DEB72B970FB6F894DEBF31
:1042F0000FBECDBF8C0185E0F801DE01179601905D
:104300000D928A95E1F7F80180819181E2802EEA91
:10431000A22E22E0B22E6091B1027091B20261151C
:10432000710509F421C13091AE024091AF02242FF2
:1043300023232F3F09F418C1C380D480F090B0022A
:10434000F601E61BF70BFF2009F4DFC02091B30252
:10435000522F507FE83CF10508F0BAC0511177C0E8
:10436000FE2C491321C038131FC0E1101DC02F704F
:1043700020612093B302C5010E94301B8091B302DB
:10438000F80185838F2D2B960FB6F894DEBF0FBEF4
:10439000CDBFDF91CF911F910F91FF90EF90DF90F4
:1043A000CF90BF90AF900895CD2829F0282F2923D2
:1043B0002F3F09F0F7C020E0F22FF170DF2EE091DF
:1043C000E5024091B40256E020FD1CC0EE20D1F27F
:1043D0008091B30281608093B302F12CD3CF2E2F52
:1043E00030E05E9FF0011124EB54FD4F6181961384
:1043F00006C06081861303C06281E612E7CFF9012F
:104400003196E770E413EBCF8F8398878F8198857F
:104410000E94E30C292F22952F70903260F0225FCA
:104420002F70223078F49F7051F0F8019581907FC1
:1044300031F4D12C0AC09F7011F08823D1F3805E33
:104440008830B8F3C8010E94301BFD2C9BCF491364
:1044500012C0381310C0E1100EC0F8012583C80146
:104460000E94301B86E0F801AEEAB2E001900D92A6
:104470008A95E1F787CF8F8398878F8198850E94EF
:10448000EF0C882309F1EE20F9F08091B30280321D
:1044900070F02091AE023091AF023A8329831B82E3
:1044A000DD82CC828E83CE0101960E94301B86E095
:1044B000F801AEEAB2E001900D928A95E1F70E9410
:1044C0001221FF24F3945ECFC8010E94301BF9CF64
:1044D00051110AC08EEA92E00E94301B86E0F5017D
:1044E00011928A95E9F779CF4913C5CF3813C3CF15
:1044F000E110C1CFF8012583C8010E94301B86E07E
:10450000F50111928A95E9F73DCFE83CF105B8F73E
:10451000FE2CEE20C9F2491316C0381314C0809146
:10452000B30280FD9FCF982F907F09F49BCFF801B5
:104530008583903F09F493CF982F907F905F8F7081
:10454000892B85838CCF8F8398878F8198850E9454
:10455000EF0C8111ACCF8091B30281608093B302E4
:10456000C8010E94301B0ECFEE2009F4ADCF8F831F
:1045700098878F8198850E94EF0CF82E882309F484
:10458000A3CF86E0F801AEEAB2E001900D928A95E1
:10459000E1F78091AE029091AF020E94E30C0E947D
:1045A0001221F0CE21E02E2507CF1F93CF93DF936A
:1045B000CDB7DEB767970FB6F894DEBF0FBECDBF9D
:1045C0004B8B5C8B6D8B7E8B8F8B1A8A85E0FE010B
:1045D0007396DE011D9601900D928A95E1F786E0B3
:1045E000FE013D96DE01179601900D928A95E1F746
:1045F000CE0107960E946821882389F016E08091F9
:10460000E5029091B402891349C067960FB6F894F9
:10461000DEBF0FBECDBFDF91CF911F91089586E021
:10462000FE013796DE01119601900D928A95E1F711
:104630008A859B85892B11F388859F8189238F3FEC
:10464000E9F22091B40230E0C90101968770992700
:104650004091E5024817190671F40E94C1141092A6
:10466000B4021092E50286E0EEEAF2E0DF011D926C
:104670008A95E9F7C3CF96E0929FD001939FB00D42
:104680001124AB54BD4FFE01319601900D929A95C5
:10469000E1F78093B4020E94C009B0CF819FC001AE
:1046A00011248B549D4F0E946821882309F4ADCFBB
:1046B0008091E50290E00196877099278093E5024A
:1046C0009ECF4F925F927F928F929F92AF92BF92B6
:1046D000CF92DF92EF92FF920F931F93CF93DF93CE
:1046E0002BE133E09AE9E92E91E0F92E290110E05F
:1046F000AA24A394B12CD2018D902D011E92E70122
:1047000089917E01E82FE295EF70F0E091A18F7022
:10471000A50101C0440F8A95EAF7892F842B81A354
:1047200082A1942E9094892182A3D0EADA95F1F7A0
:1047300084EAC82E81E0D82E90E080E0E60109915D
:104740006E01602F62956F7070E0EB0168A17C9044
:1047500070E00F7002C0759567950A95E2F760FDED
:1047600075C06A2D082E01C0660F0A94EAF7672902
:104770006C9301968630910509F781A1982291A248
:1047800082A1482B42A381E09C91981101C080E056
:10479000182BD0E24D16D3E05D0609F0ACCFE091C6
:1047A0002603F0E0E35DFC4FD9018D919D018193DB
:1047B000B3E020323B07C1F70E94C911882309F4F6
:1047C0008DC0C0912503809142038823E9F085E0E4
:1047D000EDE8F3E0ABEBB1E001900D928A95E1F7E3
:1047E0008091400390914103A09142038093C001C6
:1047F0009093C101A093C20181E090E00E943D2D01
:10480000892B11F41092420390E080E00E943D2D2C
:104810009C01892BE9F08091CA018F5F8093CA01C6
:10482000863008F050C00E94E018812FDF91CF91B0
:104830001F910F91FF90EF90DF90CF90BF90AF90BE
:104840009F908F907F905F904F90089560E08FCF02
:10485000EC2FF0E0E35DFC4FD901AC53BE4F8C91DF
:1048600081932F5F3F4F25303105B1F70091180339
:10487000802F90E0EC01CF55DD4F7E01C091C90142
:10488000F7018081C81BDC2F09C0D150F70180815E
:104890008F5F808360E0802F0E94D0181D16ACF3DC
:1048A0008C2FC7FD80E0C81BC11103C01092CA0144
:1048B000BACFCF5FD7018C9181508C9361E0802F6C
:1048C0000E94D018F1CFE0912503F0E0E35DFC4FAA
:1048D00010821182128213821482A5CFE0912603E6
:1048E000CE2FD0E08091C301883099F58091C2012C
:1048F00080FF0FC08091BB0180FF41C080918D037C
:10490000816080938D038091BB0160E086950E9459
:10491000CA198091C20181FF09C020E04091BE0107
:104920006091BD018091BC010E943E128091C20144
:1049300082FF06C08091C101882321F10E94AF1936
:104940008091C20183FF03C081E080933D031092F8
:10495000C301C35DDC4F90E080E02991DC01AC53E2
:10496000BE4F2C93019685309105B9F7E09119035C
:10497000F0E0EF55FD4F80818093C90154CF0E9434
:10498000B211C7CF0E941C0ADBCFCDB7DEB72F977D
:104990000FB6F894DEBF0FBECDBF84B7877F84BF4C
:1049A0000FB6F894A89580916000886180936000AC
:1049B000109260000FBE80E890E00FB6F8948093EC
:1049C0006100909361000FBE85B7806885BF85B791
:1049D000806885BF0E9444060E940F078091E20014
:1049E00084608093E20078948091A0038823A1F0F2
:1049F0001091E9001F709091EC00892F817090FD5B
:104A000080E8182B1092E9008091E80083FD0E9455
:104A1000CC141F701093E90082E084BD93E095BD33
:104A20009AEF97BD80936E000E94C9118093240174
:104A300080912401882309F4AFC210920D0183E212
:104A400080930E010E94C911882331F062E070E06A
:104A500084E191E00E945B2C8091240180912401EB
:104A600095E0811190E09093260385E0891B809367
:104A70002503AAE9B1E04FE951E061E070E08D91D2
:104A8000E82FE295EF70F0E011A18F709B0101C05B
:104A9000220F8A95EAF7922F9095912391A382A1F4
:104AA000822B82A34A175B0751F7A4EAB1E04AEAD6
:104AB00051E061E070E08D91E82FE295EF70F0E059
:104AC00011A18F709B0101C0220F8A95EAF7922FE6
:104AD0009095912391A382A1822B82A34A175B0711
:104AE00051F7EBE1F3E085E293E0ADE2B3E0119240
:104AF0001D928E179F07D9F790E080E00E94352E17
:104B00008C3E9E4F11F00E945B1380912401811115
:104B100006C085EF8093130184EF809312012091EA
:104B20001301A22FA295AF70B0E091963C9191979E
:104B30002F7081E090E0BC01022E01C0660F0A9444
:104B4000EAF7462F4095432391964C93919792967E
:104B50003C919297362B92963C93929740911201FA
:104B6000E42FE295EF70F0E031A14F70042E01C008
:104B7000880F0A94EAF7982F9095932391A392A116
:104B8000892B82A390968C9190E002C09595879591
:104B90002A95E2F7817020A130E002C03595279573
:104BA0004A95E2F792E020FF90E0892B80931A0368
:104BB0009091240181E0982790931903891B809399
:104BC00018030E94C911811106C062E070E084E1FF
:104BD00091E00E94642C0E94C9118111E1C182E020
:104BE0008093670380E88093AA030E94052B6DE001
:104BF00070E086EA94E00E94D50D892B09F046C04A
:104C00008091670363E070E081FDCCC183EA94E0AA
:104C10000E94D50D892BD1F56DE070E083E994E019
:104C20000E94D50D892B91F52FB7F89480916903D7
:104C300090916A03A0916B03B0916C032FBF805ACF
:104C40009541AF4FBF4F80936D0390936E03A09338
:104C50006F03B0937003EDEAF3E080E092E0DF01D0
:104C60009C011D9221503040E1F7F093B405E09390
:104C7000B3058FEF9FEF9093AC038093AB0381E07C
:104C800080937203809371031092680390E080E038
:104C90000E94352E8C3E9E4F11F00E945B1382E0E5
:104CA00090E00E94272E809381030E942F0E909304
:104CB00028038093270383E090E00E94272E282F6B
:104CC00030E050E040E02C873D874E875F87CA0187
:104CD000B9010E94B7148091290381113BC090E073
:104CE00080E00E94352E8C3E9E4F21F00E945B1387
:104CF0000E94311388E090E00E942F2E60938D0374
:104D000070938E0380938F0390939003809142035E
:104D10008360809342036E7F71F40E94311388E0B8
:104D200090E00E942F2E60938D0370938E038093EA
:104D30008F03909390030E94230A0E941C0A809183
:104D40008D0380FF04C060E086950E94CA1981E04F
:104D5000809329038CE291E090932B0380932A03A4
:104D60002DEA622E23E0722E22242394312C80918E
:104D7000A003853009F419C10E946123D82E0E9436
:104D8000C911882309F467C1E2E8F3E0ADE2B3E0BA
:104D900010E000E0302F8D912191281709F455C1C2
:104DA00090E0FF24F3942827422F4F2109F448C1B3
:104DB00099833A838F2191E009F490E09B830E94CC
:104DC000E2138160782F9D838C8349815A816B81A6
:104DD0008D810E94D522F801EE57FC4F8081F82684
:104DE000F08280914103882309F468C080914003D8
:104DF000E0918D03E695E81BE0933C03823009F0D7
:104E00003BC1F0E0EF53FB4FE491AE2EB12C0EE826
:104E100011E180913D03882389F010923D030E94A7
:104E2000E213950120953095280F391F30933B03ED
:104E300020933A0310923F0310923E0380913A036D
:104E400090913B030E94FF088A159B05B8F1809161
:104E500039038823B1F01092390380913703909180
:104E600038030E94FF088033954758F00E94E213F0
:104E70009093380380933703809142038860809336
:104E80004203E0903E03F0903F03E0913A03F0913B
:104E90003B03AE0EBF1EB0923B03A0923A038AE3DF
:104EA00093E0F801099580913E0390913F03892B8F
:104EB00029F4EF2819F081E080933903809172037F
:104EC000882309F4DAC17092B4056092B3050E9498
:104ED000C911882309F4CDC287E295E00E94C70D6D
:104EE0008FE195E00E94C70D409143035091440328
:104EF0006091450370914603CB01AA27BB27009719
:104F0000A105B10509F408C1AC01BD0180E1052F7F
:104F1000162F272F3327011511052105310519F00B
:104F2000885FB901A8018A019B01A4E03695279505
:104F300017950795AA95D1F701151105210531059A
:104F400019F08C5FB901A8018A019B01F2E0369546
:104F5000279517950795FA95D1F7011511052105A4
:104F6000310519F08E5FB901A801769567955795BF
:104F70004795452B462B472B09F08F5F823009F46C
:104F800075C208F0CBC0882309F4CEC0813009F483
:104F90006AC285EF94E0CAC083E280930D0150CDD0
:104FA00080E01ECE80EA94E033CE8091A00384306E
:104FB00009F434C010922C0388E190E020E40FB68D
:104FC000F894A895809360000FBE209360000E9423
:104FD0001C0A8091930381110AC081E0809393039E
:104FE00080918D038170809392030E94B21183B7E8
:104FF000817F846083BF83B7816083BF7894889505
:1050000083B78E7F83BF0FB6F894A8958091600018
:10501000886180936000109260000FBE80919F03B2
:10502000882309F4A4CE0E94612387E393E0EDE294
:10503000F3E021912111A2C28E179F07D1F797CEDD
:105040009F5FFF0C963009F0AFCE0F5F1F4F0A3005
:10505000110509F09FCE8FEF8F83888719860E94F4
:10506000E2138160782F9B878A874F8158856985F5
:105070008B850E94D522B5CE863049F4F0E0E2540B
:10508000FB4FE491AE2EB12C02EA11E1C2CE893081
:1050900051F4E695F0E0E554FB4FE491AE2EB12CCF
:1050A00006E71FE0B6CE8F3051F4E695F0E0E85405
:1050B000FB4FE491AE2EB12C06EB1FE0AACE85315A
:1050C00049F4F0E0EB54FB4FE491AE2EB12C0EE42A
:1050D00010E19FCE8831C9F0833239F4E3EBF4E07C
:1050E000A590B49001E311E194CE94EFA92EBB24D6
:1050F000B39406E31FE0843209F48BCE00EDA02EBA
:1051000007E0B02E02ED17E084CE88EEA82E83E0F3
:10511000B82E0AED10E17DCE80E0F9CE833009F0A3
:1051200038CF80E095E002C086E195E00E94C70D8F
:105130000E940B0A182F85EE94E010FF02C08DEE3E
:1051400094E00E94C70D85ED94E011FF02C08DED43
:1051500094E00E94C70D85EC94E012FF02C08DEC34
:1051600094E00E94C70D2091AB033091AC03211550
:10517000310509F457C080916803811153C0082F8D
:1051800010E07101082E02C0EE0CFF1C0A94E2F739
:10519000A70142235323452B09F46EC19091670365
:1051A00090FD6CC18295880F8076809327019801CD
:1051B000369527953695279520932A01815E809311
:1051C000280110922B0124E630E047E050E065E230
:1051D00071E088E70E94962B892B21F5A80195E0C4
:1051E000440F551F9A95E1F78091670380FD54C1E4
:1051F00043555C4F04E610E020E230E060E488E7CD
:105200000E94C32B892B71F40E94050EE094F09448
:105210008091AB039091AC03E822F922F092AC03A9
:10522000E092AB0380917103882339F12FB7F89492
:105230008091690390916A03A0916B03B0916C0314
:105240002FBF40916D0350916E0360916F03709179
:105250007003841B950BA60BB70BB7FD0EC0809196
:105260007103882351F062E070E088E795E00E94C6
:10527000D50D892B11F410927103D1100E94050EE7
:1052800086E0EAE7F3E0DE01119601900D928A953F
:10529000E1F780917C0390917D03892B09F468C02C
:1052A00080917803909179030E94FF089C0180917E
:1052B0007703882309F47DC12333310508F458C0EE
:1052C0008F3F19F08F5F8093770310927E031092C7
:1052D0007F0380917C03181624F40E947708809342
:1052E0007C0380917C0387FF05C00E94770881952D
:1052F00080937C0380917D03181624F40E94770824
:1053000080937D0380917D0387FF05C00E9477080D
:10531000819580937D0330917C033323B1F02091FC
:105320007D03222391F045EB3403C001112499231E
:1053300009F414C190937C0355EB250390011124CB
:10534000332309F40FC130937D030E94EE13809143
:10535000750390917603909379038093780386E0A8
:10536000FE013196AAE7B3E001900D928A95E1F72C
:1053700080917E0390917F03892B09F468C080910E
:105380007303909174030E94FF089C01809177033E
:10539000882309F409C12536310508F458C08F3F28
:1053A00019F08F5F8093770310927C0310927D0336
:1053B00080917E03181624F40E94550880937E0382
:1053C00080917E0387FF05C00E94550881958093D8
:1053D0007E0380917F03181624F40E945508809361
:1053E0007F0380917F0387FF05C00E945508819548
:1053F00080937F0330917E033323B1F020917F03AC
:10540000222391F045EB3403C0011124992309F4C0
:10541000ADC090937E0355EB2503900111243323F7
:1054200009F4A8C030937F030E94EE1380917503A6
:1054300090917603909374038093730386E0FE014A
:105440003196AAE7B3E001900D928A95E1F70E94A8
:105450000B0A90918003891709F489CC0E940B0AEA
:105460008093800384CC8FE095E060CE88E095E067
:105470005DCE88E395E075CE8F5F81CE880F880F73
:10548000880F8093270110922A01895F8093280159
:1054900083E080932B0197CE80E2A7E4B3E01D92D6
:1054A0008A95E9F7EEEAF1E0FD87EC870AEA11E078
:1054B000AC85BD852D91BD87AC87F80141908F01EA
:1054C000440E552E511CC20183559C4F2C01E22FD6
:1054D000F0E0E95BFC4F30E020E087E0982E921A84
:1054E000C22C022E01C0CC0C0A94EAF7520180E0D3
:1054F000D5019D915D019C21692D681B6770862EE9
:10550000062E000C770BB92F01C0BB0F8A94EAF767
:105510008B2E7195619571096770772701C09695FB
:105520006A95EAF7892A9081892A80828F5F88307C
:10553000F9F62F5F3F4F31962830310571F6E2EBD7
:10554000F1E02C853D85E217F30709F0B1CF04E6C1
:1055500010E020E230E047E453E050CE81E0809359
:105560007C03EACE81E080937D03EFCE81E08093DF
:105570007E0351CF81E080937F0356CF80E189BDC8
:1055800082E189BD09B400FEFDCF8091D8008F7DF6
:105590008093D8008091E00082608093E000809149
:1055A000E00081FDFCCFE3CB2D32314008F0F9CE95
:1055B0004ECF2D32314008F085CEDACE1F921FB685
:1055C0001F9211248F939F93AF93BF9380912C03CD
:1055D000811113C08091690390916A03A0916B03BC
:1055E000B0916C034196A11DB11D80936903909306
:1055F0006A03A0936B03B0936C03BF91AF919F912B
:105600008F911F901FBE1F9018951092B9008CE0CB
:105610008093B8000895EF92FF920F931F93CF935A
:10562000DF93182FEB011092BC0084EA8093BC003A
:105630000E94E2137C018091BC0087FF27C080910B
:10564000B900887F883029F08091B900887F803147
:10565000D9F51093BB0084E88093BC000E94E2134C
:105660008C018091BC0087FF24C02091B900287F65
:1056700090E080E02831B1F081E090E0203411F436
:1056800090E080E09195819591090CC0CF3FDC07B7
:1056900091F20E94E2138E199F098C179D0758F210
:1056A0008EEF9FEFDF91CF911F910F91FF90EF90C1
:1056B0000895CF3FDC07A9F20E94E213801B910BF3
:1056C0008C179D0770F2ECCF8FEF9FEFEBCF0F930E
:1056D0001F93CF93DF93EB018093BB0084E880930B
:1056E000BC000E94E2138C018091BC0087FF11C0B6
:1056F0002091B900287F81E090E0283211F490E0F9
:1057000080E0919581959109DF91CF911F910F9143
:105710000895CF3FDC0741F30E94E213801B910BF9
:105720008C179D0708F38EEF9FEFEECFCF92DF929D
:10573000EF92FF920F931F93CF93DF936B018A0138
:10574000F22EE32E622F732F0E940B2BAC01E60189
:105750000C0D1D1DC017D10711F057FF0DC084E9B6
:105760008093BC00CA01DF91CF911F910F91FF90F0
:10577000EF90DF90CF9008956F2D7E2D89910E943C
:10578000672BAC01E7CFCF92DF92EF92FF920F939E
:105790001F93CF93DF93C62F6A017901B8010E944E
:1057A0000B2B9C0197FD0DC0B8018C2F0E94672B1D
:1057B0009C01E601EC0CFD1CCE15DF0511F037FF56
:1057C0000DC084E98093BC00C901DF91CF911F9186
:1057D0000F91FF90EF90DF90CF900895B8018991DD
:1057E0000E94672B9C01E8CF84E98093BC00089558
:1057F0008EE14A9B02C08150E1F74A9BFECF08959B
:105800005A9880E28A95F1F75A9A0895FC013BE094
:105810003A95F1F720E090E080E031E040E14A95F0
:10582000F1F7880F4A9B02C08160232742E04A9526
:10583000F1F7000040E14A95F1F79F5F6913EECF61
:1058400090E19A95F1F799B132E03A95F1F70000BD
:1058500040E14A95F1F792FB992790F99227208130
:10586000920F90830895EF92FF920F931F93CF931F
:10587000DF930F92CDB7DEB719828C017C01E60E63
:10588000F11C0E151F0561F481E09981911180E0F2
:105890000F90DF91CF911F910F91FF90EF9008959E
:1058A0000E94F82B68E0CE0101960E94062CF801B8
:1058B00081938F01E6CF9093B7058093B6056093EF
:1058C000B505529A5A9A08959093B7058093B605F4
:1058D0006093B50552985A9AEA9AE9E6F0E0808119
:1058E0008F7C808308956150770B91E001C0990F00
:1058F0006A95EAF720E031E0911108C0222391F087
:105900005A9A80E28A95F1F75A980895492F4823C8
:1059100039F05A9A232740E24A95F1F79695ECCF51
:105920005A98F9CF5A98EDCFFF920F931F93CF93C8
:10593000DF93EC018C01060F111DC017D10731F464
:10594000DF91CF911F910F91FF900895F9900E94E0
:10595000002C68E08F2D0E94732CEFCF1F920F92C6
:105960000FB60F9211240F931F932F933F934F93D2
:105970005F936F937F938F939F93AF93BF93EF93B7
:10598000FF93CF93DF930F92CDB7DEB719820E94BA
:10599000F82B67E0CE0101960E94062C082F069591
:1059A00006950695982F92959570202F2570920F49
:1059B000292F2370969596958770920F891344C06E
:1059C0008981811141C08091B5058017E8F120E1FE
:1059D0002A95F1F75A9A529A82E08A95F1F700C017
:1059E000A8E00A9FC00111240091B6051091B705E7
:1059F000080F191F5A98F8016581662321F08681E6
:105A000097810E94942C0E94002CF0E1FA95F1F706
:105A10005A9852985A9A20E12A95F1F7D80112968D
:105A20006C911297662331F113968D919C910E948F
:105A3000332CD801ED91FC91882311F088E001C04E
:105A400082E080830E94F82B0F90DF91CF91FF912D
:105A5000EF91BF91AF919F918F917F916F915F91E6
:105A60004F913F912F911F910F910F900FBE0F906B
:105A70001F901895ED91FC91E1CF0F931F93CF9359
:105A8000DF939C018091B505821713060CF471C059
:105A9000890183E0000F111F8A95E1F7C091B605D7
:105AA000D091B705C00FD11FF894529A5A9885E04B
:105AB0008A95F1F70000922F969595702570920FB8
:105AC000892F837096959695980F092B0E94002C2C
:105AD00000C067E0802F0E94732C80E18A95F1F767
